:020000040800F2
:1000000058190020DD010008A730000871240008FD
:10001000A5300008D50B0008315D00080000000085
:100020000000000000000000000000004501000882
:10003000D70B00080000000089010008AD5000083F
:10004000F7010008F7010008F7010008F7010008B0
:10005000F7010008F7010008F7010008F7010008A0
:10006000F7010008F7010008F7010008F701000890
:10007000F7010008F7010008F7010008F701000880
:10008000F7010008F7010008F7010008F701000870
:10009000F7010008F7010008F7010008F701000860
:1000A000F7010008F7010008F7010008F701000850
:1000B000F7010008F7010008F7010008F701000840
:1000C000F7010008F7010008F7010008F701000830
:1000D000F7010008315A00083D5A0008495A000843
:1000E000F7010008F7010008F7010008F701000810
:1000F00071510008F7010008F7010008F701000836
:10010000F7010008F7010008F7010008F7010008EF
:10011000E1570008F7010008F7010008F70100089F
:10012000F7010008F7010008F7010008F7010008CF
:10013000DFF80CD000F0DCFC00480047F97800083C
:1001400058190020224B19680868B0E8F00F80F3B6
:100150000988BFF36F8F4FF0000080F311884EF0D5
:100160000D0E70470000000006480068006880F32C
:10017000088862B661B6BFF34F8FBFF36F8F00DFA1
:1001800000BF00BF08ED00E0EFF30980BFF36F8F01
:100190000F4B1A6820E9F00F106008B54FF05000BF
:1001A00080F31188BFF34F8FBFF36F8F08F0E8FE25
:1001B0004FF0000080F31188BDE808401968086816
:1001C000B0E8F00F80F30988BFF36F8F704700BF6E
:1001D00070000020EFF3058070470000064880475C
:1001E00006480047FEE7FEE7FEE7FEE7FEE7FEE71C
:1001F000FEE7FEE7FEE7FEE72951000831010008AF
:10020000202A04DB203A21FA02F00021704721FA6B
:1002100002F3D040C2F120029140084319467047D2
:1002200040EA01039B0703D009E008C9121F08C078
:10023000042AFAD203E011F8013B00F8013B521EF8
:10024000F9D27047D2B201E000F8012B491EFBD26F
:1002500070470022F6E710B513460A4604461946D1
:10026000FFF7F0FF204610BD421C10F8011B0029CB
:10027000FBD1801A7047F0B480EA0102D40F42002B
:10028000B2EB410F02D20246084611464A0042D064
:10029000C30DDDB2C1F3C752AD1A202D35DAC1F35B
:1002A000160141F4000204B15242C5F1200602FADF
:1002B00006F12A411044B3EBD05F23D0C4B1012D25
:1002C000A0EBC35009DCF0BC4FF0004202EAC3527D
:1002D000DBB200F5000000F0FFBA400000F18070D2
:1002E00000EBC350A0F1807040EAD170490009E0F2
:1002F000490841EAC071A0EBC35000F50000400876
:1003000000EBC350F0BC00F0DEBA6142012202EB08
:100310004101001BF6E7F0BC704781F00041AAE7FD
:1003200080F00040A7E780EA010210B502F0004328
:10033000400022D04A001FD0010E01EB1261C0F331
:100340005600C2F3560240F4000042F40002A0FB43
:10035000022000047F39140400D0401C50EA1240EF
:1003600001D44000491EC2B20C0604EBD010401C60
:100370004008802A02D003E0002010BD20F00100D8
:10038000002900DA0020184310BD30B480EA0102D1
:1003900002F0004530F0004221F0004013D090B14F
:1003A000C30DD40DC2F31601C0F31600E41A41F4D4
:1003B000000140F400027D34914201D3641C00E04E
:1003C0004900002C02DA30BC002070474FF40000D6
:1003D0000023914201D3891A034340084FEA4101A7
:1003E000F7D151B1914202D14FF0004105E002D264
:1003F0004FF0010101E06FF0010103EBC45028440C
:1004000030BC00F060BA2DE9FE4F804681EA03005F
:10041000C00F0C46009021F0004123F00045B8EBDE
:100420000200A94105D24046214690461C460B4693
:10043000024623F00040104347D0270DC7F30A00BF
:10044000C3F30A510290401A019040286BDAC3F3BB
:10045000130040F4801B0098924620B10023D2EB99
:10046000030A63EB0B0B01985946C0F1400250465A
:1004700000F008FA06460D4650465946019A00F02B
:1004800010FA10EB08006141002487EA115284EA57
:10049000E7731A4340D0009A62B3019A012A4FEAE7
:1004A000075215DC001B61EB02014FF0004202EA2B
:1004B0000752CDE90042001C41F5801132462B461F
:1004C00000F047FA03B0BDE8F08F40462146F9E757
:1004D000001B61EB0201001C41F5801300185B4119
:1004E0002018A2F5001747EB030140EAD570B619B2
:1004F0006D4111E06D084FEA360645EAC0754FEAD6
:100500000752001B61EB0201001C41F580114908F4
:100510004FEA30000019514132462B4603B0BDE886
:10052000F04F00F007BA0098012240000023D0EB02
:10053000020263EBE073009821464FEAE074B8EBE7
:10054000000061EB0401E9E783F000435BE781F021
:10055000004158E72DE9FE4F81EA030404F000440E
:1005600021F0004100944FF0000B23F0004350EACB
:1005700001045ED052EA03045BD0C3F30A54C1F312
:100580000A552C44A4F2F3340194A0FB0254C1F3A5
:10059000130141F48011C3F3130343F4801301FBEF
:1005A000024400FB034E840A970A44EA815447EA56
:1005B0008357A4FB076802958D0A05FB07854FEA60
:1005C000932C04FB0C542705029D4FEA065847EA7A
:1005D0001637B5EB08056EEB070C870E920E47EA4F
:1005E000811742EA8312A7FB0201B6EB0B0164EB11
:1005F00000042B0D43EA0C335E1844EB1C50DA4622
:100600005146E7FB0201C5F313044FEA0B3343EAFB
:1006100014534FEA0432019C43EA0603A4F10C048C
:100620000294009CCDE900B400F093F903B0BDE85A
:10063000F08F00200146F9E72DE9F04D81EA03042F
:1006400004F0004B21F0004514464FF0000A23F05F
:10065000004150EA050220D054EA01021DD0C5F342
:100660000A570246C5F31303C1F31300C1F30A5638
:1006700040F4801543F48013A7EB0608101BD64600
:1006800008F2FD3873EB050002D308F1010801E020
:1006900092185B41B8F1000F03DA00200146BDE873
:1006A000F08D00204FF48011064684460EE0171BA3
:1006B00073EB050705D3121B63EB050306434CEAF6
:1006C000010C49084FEA300092185B4150EA0107DB
:1006D000EDD152EA030012D082EA040083EA050158
:1006E000084305D0101BAB4106D20122002306E0CF
:1006F00000224FF0004302E06FF0010253101AEBAA
:1007000006004CEB085110EB0A0041EB0B01BDE871
:10071000F04D00F00FB970B521F0004303430CD049
:10072000C1F30A550024D5EB040564EB0403D61786
:10073000AD1AB34102DB0020014670BD201841EB29
:10074000025170BD96230022114600F0C5B80EB5C7
:10075000C10F80EAE0700844CA07002140F2334329
:100760008DE80E000A460B4600F0F3F803B000BD1A
:1007700020F00040C10DC0F3160040F400007F29B6
:1007800001DA00207047962903DCC1F19601C840C8
:10079000704796398840704700F0004230F00040C2
:1007A0000AD0C10D01F56071C0F3160042EA015193
:1007B000C20840071143704700200146704701F00E
:1007C000004330B421F0004150EA010206D00A0D86
:1007D000A2F56072C1F31301002A02DC30BC0020D4
:1007E0007047440F44EAC104C100E01830BC00EB7C
:1007F000C25000F068B830B50B46014600202022F8
:10080000012409E021FA02F59D4205D303FA02F51D
:10081000491B04FA02F52844151EA2F10102F1DC7D
:1008200030BD2DE9F05F0546002092469B46884684
:100830000646814640241BE028464146474622465C
:10084000FFF7DEFC53465A46C01A914110D31146B9
:100850001846224600F016F82D1A67EB01084F469D
:1008600022460120002100F00DF817EB00094E414F
:10087000201EA4F10104DFDC484631462A464346E7
:10088000BDE8F09F202A04DB203A00FA02F10020A4
:1008900070479140C2F1200320FA03F319439040BE
:1008A0007047202A06DBCB17203A41FA02F043EAD0
:1008B000E07306E041FA02F3D040C2F12002914019
:1008C0000843194670470029A8BF7047401C4900DB
:1008D00008BF20F00100704710B4B0FA80FC00FAA5
:1008E0000CF050EA010404BF10BC704749B1CCF1D0
:1008F000200421FA04F411FA0CF118BF012121435C
:100900000843A3EB0C01CB1D4FEA00614FEA102016
:1009100042BF002010BC704700EBC35010440029B8
:10092000A4BF10BC7047401C490008BF20F0010064
:1009300010BC704710B5141E73F1000408DA401C97
:1009400041F1000192185B411A4301D120F00100EE
:1009500010BD2DE9F04D92469B4611B1B1FA81F2DE
:1009600002E0B0FA80F220329046FFF78BFF044697
:100970000F4640EA0A0041EA0B0153465A46084333
:1009800013D0114653EA010019D0C8F14002504675
:10099000FFF736FC05460E46504659464246FFF7DD
:1009A00071FF084305D0012004E020463946BDE828
:1009B000F08D0020054346EAE0762C4337430A9841
:1009C0006305E40AA0EB08000022FD0A44EA47544C
:1009D0000A3002D500200146E9E7010510196941F6
:1009E000DDE9084500196941BDE8F04DA2E72DE9B0
:1009F000F04D00231A461B1A8A4103DB00200146F2
:100A0000BDE8F08DC1F30A52C1F3130141F4801522
:100A10004FF0000BD10702D100186D41521E002784
:100A2000044640F2FF11384601EB620A3E4680461A
:100A3000024600204FF48011FFF7E2FBC21971411A
:100A4000BB1846EB0100B4EB030C75EB000C04D3B0
:100A5000E41A65EB000517460E46241908F101005B
:100A60006D4180463428E3DDF91946EB0600091B89
:100A7000A84103D24FF0FF32134601E00022134693
:100A80001BEB070046EB0A51BDE8F04DFFF752BFE4
:100A9000C1F30A52C1F3130140F2FF3341F4801154
:100AA0009A4202DA00200146704740F233439A42EC
:100AB000A2F2334202DC5242FFF7A2BBFFF7E2BED2
:100AC00030B5041E71F1000404DB4FF000444042D5
:100AD00064EB0101141E73F1000405DB1C464FF0AA
:100AE0000043524263EB0403994208BF904230BD79
:100AF000064C074D06E0E06840F0010394E807006B
:100B000098471034AC42F6D3FFF716FB849D0008DB
:100B1000A49D00080EB540F2334102910021CDE9B9
:100B200000110A460B46FFF714FF03B000BD70B575
:100B3000C1F30A5201F000450024C1F3130140F251
:100B4000FF3341F480119A4201DA002070BD40F277
:100B500033439A42A2F2334203DC5242FFF750FB86
:100B600000E090402C43F1D0404270BD174810B5D2
:100B70008178022927D10178012924D114490A78E2
:100B8000442A10D18A780B79303A02EBC20404EB84
:100B90000212C97803EB820201EB8101F02303EB1F
:100BA0004101114441704178A1F11502092A01D295
:100BB000012107E04A1E132A01D8032102E01E2961
:100BC00001D30221C170012010BD000000000020EF
:100BD00046010020FEE7704710B50849022008A42E
:100BE00008702046FFF740FB214682B2BDE8104066
:100BF0004FF47A73114801F0DDBB0000D0000020F3
:100C00000D0A3D3D3D204465627567204F75747047
:100C10007574205265646972656374656420746FCD
:100C200020426C7565746F6F74682028555341526B
:100C3000543229203D3D3D0D0A00000038050020BA
:100C40000FB40D4870B54FF4007505AB2946049AF2
:100C500005F088F8041E0CDDAC420AD2A2B24FF4B3
:100C60007A730549054801F0A5FB204670BC5DF884
:100C700014FB0020FAE7000048130020380500208C
:100C80000FB47FB516490978884226D8154C4FF421
:100C900000751ECC8DE81E005DF8203012A229469A
:100CA000124805F047F80446C0F500710F480AAB3A
:100CB0002044099A05F056F80444002C0DDDAC429E
:100CC0000BD2A2B24FF47A730849094801F072FBC3
:100CD000204604B070BC5DF814FB0020F9E700006A
:100CE000D0000020349A000825732000481300200B
:100CF0003805002010B50A4903460AA208704FF4CF
:100D000000710F4805F016F80D48FFF7ADFA82B2F2
:100D1000BDE810404FF47A7309490A4801F04ABB14
:100D2000D00000204465627567206C6576656C2094
:100D300073657420746F3A2025640D0A000000006A
:100D4000481300203805002010B513A10020FFF73C
:100D500097FF19A10120FFF793FF20A10220FFF7C1
:100D60008FFF26A10320FFF78BFF2CA0FFF768FF62
:100D70000320FFF7BFFF36A0FFF762FF0020FFF759
:100D8000B9FF41A0FFF75CFF0220FFF7B3FFBDE80A
:100D900010404DA0FFF754BF546869732069732059
:100DA000616E204552524F52206D657373616765C5
:100DB00020746573740D0A00546869732069732088
:100DC00061205741524E494E47206D6573736167EC
:100DD0006520746573740D0A00000000546869731F
:100DE00020697320616E20494E464F206D657373F4
:100DF00061676520746573740D0A00005468697337
:100E00002069732061204445425547206D65737306
:100E100061676520746573740D0A00005374616E18
:100E200064617264207072696E7466207465737494
:100E3000202D2073686F756C64206F7574707574E5
:100E400020746F20426C7565746F6F74680D0A00B2
:100E50004465627567206C6576656C2073657420E7
:100E6000746F204445425547202D20616C6C206DE5
:100E7000657373616765732073686F756C64207345
:100E8000686F770D0A0000004465627567206C6525
:100E900076656C2073657420746F204552524F52F2
:100EA000202D206F6E6C79206572726F72206D65D7
:100EB0007373616765732073686F756C6420736802
:100EC0006F770D0A000000004465627567206C654D
:100ED00076656C20726573746F72656420746F2020
:100EE000494E464F0D0A00007047000001488078C7
:100EF00070470000000000200148C07870470000E3
:100F0000000000202DE9F05F90F821100024022954
:100F100003D004218163012485E001680A6822F07E
:100F20000E020A6001680A6822F001020A603F4E60
:100F30003E4FB215DFF8F4C0DFF8F090DFF8ECA018
:100F4000DFF8E8B0DFF8E4E00168783F130115024C
:100F5000ACF1640CA9F15009AAF13C0AABF1280BE1
:100F6000AEF1140E4FF48018B14227D9B9420ED019
:100F7000614512D049451DD0514518D0594518D06A
:100F8000714501D1424615E0294EB14201D10122FD
:100F900010E0274E1436B14201D110220AE0244E4F
:100FA0002836B14206D0224A3C32914201D11A463B
:100FB00000E02A461E49091F0A602BE0B94213D0FF
:100FC000614517D0494522D051451DD059451DD006
:100FD000714501D142461AE0B14202D14FF0807210
:100FE00015E0134EB14201D1012210E0104E14362B
:100FF000B14201D110220AE00D4E2836B14206D08E
:101000000B4A3C32914201D11A4600E02A46074978
:1010100080394A60012180F82110002180F82010D9
:10102000416B01B188472046BDE8F09F8000024037
:101030000804024070B5044600F016F90546601C2D
:1010400002D004480078044400F00EF9401BA0428E
:10105000FAD370BD600000202DE9F84FDFF8C89189
:10106000002409F1040A0AF1040B23460F270BF1AF
:10107000040ED1E00125A54006EA0502AA4276D178
:10108000DFF8A8C14E68A6EB0C0866452BD00DDC36
:10109000032E34D005DC36B3012E19D0022E2FD109
:1010A0001BE0112E16D0122E2AD119E0B8F5881F98
:1010B00019D006DCB8F5803F15D0B8F5801F1FD1D8
:1010C00011E0B8F5001F0ED0B8F5041F18D10AE0E2
:1010D000CB6815E0CB681B1D12E0CB6808330FE02E
:1010E000CB680C330CE08B682BB1012B4FF008035D
:1010F00003D0456104E0042302E0056100E0002321
:10110000FF2A01D8064601E000F104064FEA8405F3
:1011100001D9A5F12005D6F8008007FA05FC28EAD8
:101120000C0803FA05F548EA0508C6F800804D6882
:10113000ED0070D53E4DAE6946F00106AE61AD6979
:1011400024F0030605F0010500953A4D06EB050C69
:10115000DCF80850A607360F07FA06F825EA080556
:10116000DFF8D480404503D14FF0000825E052E07D
:10117000DFF8C880404502D14FF001081DE0DFF8DC
:10118000C080404502D14FF0020816E0DFF8B4807D
:10119000404502D14FF003080FE0DFF8AC80404536
:1011A00002D14FF0040808E0DFF8A080404502D1EA
:1011B0004FF0050801E04FF0060808FA06F848EA83
:1011C0000508CCF808804D68D9F80060ED034D465D
:1011D00001D5164300E096432E604D68DAF80060B2
:1011E000AD03554601D5164300E096432E604D6889
:1011F000DBF80060ED025D4601D5164300E0964342
:101200002E604D68DEF80060AD02754601D51643CC
:1012100000E096432E60641C0A681646E2407FF4A4
:1012200029AFBDE8F88F0000000401400000111054
:10123000001002400000014000080140000C014085
:10124000001001400014014000180140001C014042
:10125000C2680A4201D041617047016170470AB11A
:10126000016170470904FBE701488068704700008E
:101270006000002002488168027811448160704754
:1012800060000020074810B5016841F010010160BE
:10129000032000F095F8002000F006F800F03EF87A
:1012A000002010BD0020024000B5014687B000229A
:1012B0002C2000F065F82C2000F054F813488169C8
:1012C00041F400518161806905A900F40050069045
:1012D000684600F01DF900F04BF90D490D4AB0FBCE
:1012E000F1F10D48491E0260416040F2E7320021F1
:1012F000C0E90321816000F05EFB10B1012007B05E
:1013000000BD054800F0AAFBF9E70000001002400C
:1013100040420F0000340140B80500200F4808B5D6
:10132000816941F001018161816901F00101009150
:10133000C16941F08051C161C069002200F0805054
:1013400000900F21901E00F01BF80548416821F025
:10135000E06141F00071416008BD000000100240F2
:1013600000000140002809DB00F01F02012191402C
:101370004009800000F1E020C0F800117047000033
:10138000F0B40E4B1B680C46C3F30223C3F10705F0
:10139000042D00D90425191D072901D2002300E0DE
:1013A000DB1E012606FA05F1491E214099409E40A8
:1013B000761E16403143F0BC04F0FEBC0CED00E09C
:1013C000064900F0070208684FF6FF03184040EA9C
:1013D0000220034A10430860704700000CED00E053
:1013E0000000FA052DE9F0470F46050061D0434E95
:1013F000306800F00700B84209D2306820F00700DA
:1014000038433060306800F00700B84251D1286896
:101410003B4C810712D5400703D5606840F4E0607B
:1014200060602878000703D5606840F46050606011
:101430006068A96820F0F000084360602878C00761
:1014400028D06868012810D02168022810D08907A8
:1014500000292EDA616821F0030101436160FFF782
:1014600003FF804641F288390DE021688903EFE7E8
:101470008901EDE7FFF7F8FEA0EB0801494502D925
:101480000320BDE8F0876068696800F00C00B0EBED
:10149000810FEFD1306800F00700B8420BD93068F7
:1014A00020F0070038433060306800F00700B84291
:1014B00001D00120E5E72878400705D56068E96894
:1014C00020F4E060084360602878000706D5606873
:1014D000296920F4605040EAC100606000F058F8CB
:1014E0006168084AC1F30311515CC84006490860AD
:1014F00006480068FFF7D8FE0020C2E7002002403F
:1015000000100240B09900086C0000206400002028
:101510000F2202600C4A536803F0030343605368D0
:1015200003F0F0038360536803F4E063C360526820
:101530004FF4E06303EAD20202610448006800F05D
:1015400007000860704700000010024000200240C1
:101550000448054900684968044AC1F30221515C06
:10156000C84070476C00002000100240C09900087D
:101570000448054900684968044AC1F3C221515C26
:10158000C84070476C00002000100240C09900085D
:1015900012A185B00FC98DE80F0014A0144A00688D
:1015A00004905168134801F00C03042B10D0082B51
:1015B0000ED1C1F38343C9031DF803000AD5516856
:1015C00004AAC1F34041515C0A4A5043B0FBF1F018
:1015D00005B0704708494843FAE7000002030405D4
:1015E000060708090A0B0C0D0E0F1010010200006F
:1015F0000010024000127A0000093D002DE9F84F6A
:10160000040070D02078C04DC00749D06868C0F38E
:101610008100012807D06868C0F38100022809D141
:101620006868C00306D52868800339D5606800283B
:10163000E7D035E06068B0F5803F0BD010B1B0F571
:10164000A02F11D0286820F480302860286820F46A
:10165000802002E0286840F480302860606890B103
:10166000FFF702FE06460AE0286840F48020286062
:10167000F0E700BFFFF7F8FD801B642873D82868E7
:101680008003F7D50CE0FFF7EFFD064605E000BF4D
:10169000FFF7EAFD801B6428F0D828688003F7D4A0
:1016A00020789A4E80074FF001094FF0000839D595
:1016B000686810F00C0F07D06868C0F3810002283A
:1016C00009D16868C00306D42868800714D520694A
:1016D000012808D110E02069B0B1C6F80090FFF7EA
:1016E000C3FD074605E00AE1FFF7BEFDC01B022867
:1016F000C4D828688007F7D52868616920F0F80009
:1017000040EAC10028600DE0C6F80080FFF7ACFD9C
:10171000074604E0FFF7A8FDC01B022823D828686D
:101720008007F7D4207800072CD57948A169D9B172
:10173000C0F80090FFF798FD074604E0FFF794FD1E
:10174000C01B02280FD8686A8007F7D571484FF48C
:10175000FA510068B0FBF1F0009000BF0098411E04
:101760000091FAD20EE080E0C0F80080FFF77CFD27
:10177000074604E0FFF778FDC01B022875D8686AA9
:101780008007F7D42078400760D5E8690027C000BB
:1017900008D4E86940F08050E861E869012700F06A
:1017A000805000905C480168C90513D401688346E5
:1017B00041F480710160FFF757FD824606E000BFEB
:1017C000FFF752FDA0EB0A0064284ED8DBF80000BA
:1017D000C005F5D5E06801280AD008B1052813D066
:1017E000286A20F001002862286A20F0040002E044
:1017F000286A40F001002862E06841F2883B98B115
:10180000FFF732FD82460BE0286A40F004002862B0
:10181000EEE700BFFFF728FDA0EB0A0159455AD8B3
:10182000286A8007F6D50CE0FFF71EFD824605E02A
:10183000FFF71AFDA0EB0A0159454CD8286A80072A
:10184000F6D41FB1E86920F08050E861E06988B300
:101850006968C1F38101022944D00228C6F860807A
:1018600004D0FFF701FD044638E034E0FFF7FCFC4C
:10187000074604E0FFF7F8FCC01B02282BD82868B5
:101880008001F7D4206AB0F5803F05D16868A1686F
:1018900020F4003008436860D4E90801084369680F
:1018A00021F4741108436860C6F86090FFF7DCFC0F
:1018B000044606E025E000BFFFF7D6FC001B022827
:1018C00009D828688001F7D51BE000BFFFF7CCFCE2
:1018D000001B022802D90320BDE8F88F2868800188
:1018E000F4D40EE00128F7D06868226A00F4803151
:1018F000914204D1616A00F47010884201D0012045
:10190000EAE70020E8E70000001002400000424241
:10191000800442426C000020007000407047704715
:1019200010B590F83C20012A22D0012280F83C20FA
:10193000CA688C6822F4407222434C6822F48062A8
:1019400022430C6822F4006222430C6922F4805284
:1019500022434C6922F400522243C969002322F435
:1019600080420A4301684A6480F83C30002010BD80
:10197000022010BD70B590F83C20012A19D0012436
:1019800000F83C4F0222427050F83C3C5A689D6877
:1019900022F070060A684968324325F08005294321
:1019A0005A6050F83C2C9160447000210170084648
:1019B00070BD022070BD10B5040003D094F83D0046
:1019C00010B107E0012010BD002084F83C00204643
:1019D00000F00CF8022084F83D00211D206803F07F
:1019E000CDFB012084F83D00002010BD08B5174A4A
:1019F00001681748914207D1816941F40061816112
:101A0000806900F4006014E0B1F1804F0AD0114AFF
:101A1000914210D1C16941F00201C161C06900F079
:101A2000020006E0C16941F00101C161C06900F036
:101A30000100009008BD084A9142FBD1C16941F004
:101A40000401C161C06900F00400F2E7002C01400C
:101A50000010024000040040000800400168CA680D
:101A600042F00102CA600068816801F0070106299E
:101A700003D0016841F0010101600020704770B59A
:101A8000044690F83C00012817D0012584F83C500A
:101A9000022084F83D002068826822F0770222F458
:101AA0007F4282600868502830D00DDC20284DD05D
:101AB00005DC98B310283BD148E0022070BD3028E7
:101AC00044D0402834D139E0602828D0702806D08E
:101AD000B0F5805F2CD0B0F5005F29D10AE0CB686B
:101AE000D1E90121206803F09CFB2068816841F066
:101AF000770109E0CB68D1E90121206803F091FB6F
:101B00002068816841F48041816011E0CA684968B9
:101B1000206803F05BFC5021206807E016E0CA68EB
:101B20004968206803F063FC6021206803F083FBB0
:101B300084F83D50002084F83C0070BDCA684968B4
:101B4000206803F043FC40212068EFE7226801464B
:101B50001046EBE7704770B50446006801694FF026
:101B60000005C943890715D4C168C943890711D441
:101B7000E91E0161012020772068806980072046E6
:101B800002D0FFF7E7FF04E000F024F9204600F060
:101B9000A6F9257720680169C943490717D4C168A8
:101BA000C943490713D46FF0040101610220207773
:101BB0002068806910F4407F204602D0FFF7CAFFFA
:101BC00004E000F007F9204600F089F92577206845
:101BD0000169C943090716D4C168C943090712D46A
:101BE0006FF008010161042020772068C069800738
:101BF000204602D0FFF7AEFF04E000F0EBF82046ED
:101C000000F06DF9257720680169C943C90617D42A
:101C1000C168C943C90613D46FF0100101610820DF
:101C200020772068C06910F4407F204602D0FFF77B
:101C300091FF04E000F0CEF8204600F050F925773F
:101C400020680169C943C90708D1C168C943C907E8
:101C500004D1891E0161204600F064F92068016901
:101C6000C943090609D4C168C943090605D46FF000
:101C7000800101612046FFF751FE20680169C943D8
:101C8000490609D4C168C943490605D46FF040012B
:101C90000161204600F050F920680169C9438906B6
:101CA0000BD4C168C943890607D46FF020010161D4
:101CB0002046BDE87040FFF732BE70BD70B586B0FB
:101CC000002100910191029103910268384839493D
:101CD00002250324384E824218D1886940F0400022
:101CE00088618869694600F0400004904FF4D04054
:101CF000CDE9000503943148FFF7AEF9706820F094
:101D0000C00040F0E06040F0C0004EE02C48B2F16E
:101D1000804F23D02B4B9A422ED18A6942F0040285
:101D20008A618A6902F0040204928A6942F0080218
:101D30008A618969039401F0080104918021CDE949
:101D400000156946FFF788F9CDE9004569461E4848
:101D5000CDF80C40FFF780F906B070BD8A6942F0FB
:101D600004028A618969039401F0040104910E213F
:101D7000CDE900156946EDE714488242ECD1886947
:101D800040F0200088618869694600F020000490D6
:101D90004FF46040CDE9000503940D48FFF75CF96E
:101DA000706840F0E06040F480507060D4E700005C
:101DB000002C0140001002400000014000180140CA
:101DC0000008014000040040000C014000080040F1
:101DD00000140140704770B5044690F83C000D4671
:101DE00001280DD0012684F83C60022084F83D00D3
:101DF00042B1042A18D0082A2AD00C2A4DD139E041
:101E0000022070BD206803F01FFA2068816941F04C
:101E1000080181612068816921F0040181612068E5
:101E200081692A69114311E0206803F03DFA2068B6
:101E3000816941F4006181612068816921F48061D8
:101E40008161206881692A6941EA0221816124E077
:101E5000206803F05FFA2068C16941F00801C161A0
:101E60002068C16921F00401C1612068C1692A6943
:101E7000114311E0206803F081FA2068C16941F440
:101E80000061C1612068C16921F48061C16120687D
:101E9000C1692A6941EA0221C16184F83D600020DC
:101EA00084F83C0070BD10B5040003D094F83D00E8
:101EB00010B107E0012010BD002084F83C0020464E
:101EC00000F00CF8022084F83D00211D206803F08A
:101ED00055F9012084F83D00002010BD704770477F
:101EE00010B504460068012203F08EF90B49206802
:101EF000884202D00A49884203D1416C41F4004132
:101F000041642068816801F00701062903D0016857
:101F100041F001010160002010BD0000002C0140D3
:101F20000034014000680349884201D1FFF7A2B99B
:101F300070470000003401407047704770B5026878
:101F400004461068D168536910F00F0F50D003F0A9
:101F5000010501F4907635435DD0C20705D0CA056E
:101F600003D5E26B42F00102E263420705D5DA07CE
:101F700003D0E26B42F00202E263820705D5DA0782
:101F800003D0E26B42F00402E263020705D5DA07F0
:101F900003D0E26B42F00802E263E26B002A33D026
:101FA000800604D5880602D5204603F035FC20685B
:101FB0004069E16BC0F38010090700D428B32046C4
:101FC00003F01CFC2068416949061AD5416921F0DB
:101FD00040014161606BA0B11B494163606BFEF73A
:101FE00091FF002810D0606B416BBDE8704008473E
:101FF000830610D58B060ED52046BDE8704003F051
:102000000BBC2046FFF799FF70BD2046FFF795FFF8
:102010000020E06370BD030606D50B0604D52046FC
:10202000BDE8704003F0A0BC4006F3D54806F1D5EA
:10203000D168204621F04001D160202184F8391078
:1020400000F015FA70BD0000ED57000870B50400EF
:1020500004D094F83900002510B106E0012070BDCD
:1020600084F83850204600F023F8242084F8390002
:102070002068C16821F40051C160204603F018FCBB
:102080002068016921F4904101612068416921F0D3
:102090002A0141612068C16841F40051C160E563D3
:1020A000202084F8390084F83A00002070BD000038
:1020B000F0B585B000240094019402940394036861
:1020C0005B485A4F051502210322C614BB4225D195
:1020D000C36943F40023C361C36903F40023049379
:1020E000836943F0100383618069CDE9005100F0FA
:1020F0001000CDE903204F4D69462846FEF7ACFF9E
:10210000CDE90064694628460294FEF7A5FF002247
:1021100005213420FFF734F9342028E0464FBB4234
:1021200029D1836943F480438361836903F4804345
:102130000493836943F00403836180693F4E00F098
:10214000040004907815CDE90001039269463046F9
:10215000FEF782FFCDE90054694630460294FEF74F
:102160007BFF002205212520FFF70AF92520FFF734
:10217000F9F805B0F0BD324FBB422ED1C36943F42C
:102180000033C361C36903F400330493836943F0EC
:102190002003836180692B4D00F0200004902020F3
:1021A000CDE90001039269462846FEF755FF40201D
:1021B000CDE90004694628460294FEF74DFF224807
:1021C000416841F0E06141F00801416000220521D1
:1021D0002620FFF7D5F82620C9E71C4FBB42C8D1FF
:1021E000C36943F48023C361C36903F48023049368
:1021F000836943F0080383618069CDE9005100F0F1
:102200000800CDE90320124D69462846FEF724FF59
:10221000CDE90064694628460294FEF71DFF0022BE
:1022200005212720FFF7ACF82720A0E7004C00404D
:102230000010024000100140003801400008014039
:1022400000440040001401400000014000480040EC
:10225000000C014090F83A30202B22D1F9B1F2B1B4
:1022600090F83830012B1CD081628285C285002114
:10227000C163222280F83A2080F838100168CA68C9
:1022800042F48072CA6001684A6942F001024A6100
:102290000068C16841F02001C16000207047012042
:1022A00070470220704700002DE9F04106460068A3
:1022B0003649884209D137483549006805F0D0FBD6
:1022C000022233493448FFF7C5FF344930680027FC
:1022D0002F4D334C884230D105F1140000F11F011D
:1022E000027820780A5438B90978552904D0012297
:1022F00005F114012B4843E0401CC0B220700B28AC
:1023000015D1D5F83300A862D5F83700E862B5F8E2
:102310003B00288695F83D0085F8320027700120A3
:10232000607021481A492831006805F099FB184966
:10233000012214311B48FFF78DFF1C493068884289
:1023400022D113485230A0F10A010278A0780A5431
:1023500010B9097844290FD1401CC0B2A0700528DB
:102360000AD1A86C45F83E0F0521A87B28710848C2
:10237000A7703E3003F08AFB054901220C48523118
:10238000BDE8F041FFF766BFBDE8F08100440040C2
:1023900008010020480000203805002000480040C7
:1023A00044000020780500204C000020004C004034
:1023B000B80400202DE9F843044690F839001F4680
:1023C00016460D46202850D1A5B19EB194F838008C
:1023D00001284AD0012084F838004FF00008C4F8E2
:1023E0003C80212084F83900FEF73EFFA684814618
:1023F000E68426E00120BDE8F883E08C401EE084FE
:10240000A0684B46B0F5805F4FF000024FF08001AE
:102410002046009703D003F0D8FAE8B90DE003F0A6
:10242000D4FAC8B928882168C0F308004860206938
:1024300008B16D1C05E0AD1C03E0216815F8010B27
:102440004860E08C0028D8D14B460022402120462D
:10245000009703F0BAFA08B10320CCE7202084F8F3
:10246000390084F838800020C5E70220C3E77047B0
:10247000FEE700002DE9FC5F2148224C4FF00008E8
:102480004168DFF870B081F0004626620068DFF82E
:1024900068A080F00045A562DFF860903046616A70
:1024A000FDF73BFF4946FDF73EFF074631465046E4
:1024B000FDF739FF3946FDF7DEFE0746666228461E
:1024C000E16AFDF72AFF4946FDF72DFF064629463A
:1024D0005046FDF728FF3146FDF7CDFEE562CDE918
:1024E000007803465A464146404600F0DDFD012093
:1024F000BDE8FC9F00000243CDCC4C3FCDCC4C3E10
:1025000030130020080000202DE9FF410C4EB06878
:10251000FEF742F9074688467068FEF73DF9044623
:102520000D463068FEF738F98DE8B00102460B46DB
:1025300004A10220FEF7A4FB04B00120BDE8F08155
:1025400030130020494D552044617461202D2052E4
:102550006F6C6C3A252E32662050697463683A2598
:102560002E3266205961773A252E32660D0A000018
:102570000FB42DE9F04FDBB069AC94E88102FEF7AF
:102580000BF9CA4DCA4E2A463346FDF7E3FFDFF882
:10259000248300224346FEF74FF8FEF710F9044665
:1025A0003846FEF7F9F82A463346FDF7D3FF0022F6
:1025B0004346FEF741F8FEF702F907464846FEF7A4
:1025C000EBF82A463346FDF7C5FF00224346FEF7E7
:1025D00033F8FEF7F4F806462422B7494EA8FDF773
:1025E0001FFE2046FEF7D8F80D46044604F0E4FF2F
:1025F000FEF7E5F852902046294606F05DFAFEF710
:10260000DEF880F0004053902046294606F054FA48
:10261000FEF7D5F855902046294604F0CDFFFEF789
:10262000CEF8A54956902422243115A8FDF7F8FDCF
:102630003846FEF7B1F80D46044604F0BDFFFEF73C
:10264000BEF815902046294606F036FAFEF7B7F890
:1026500017902046294606F02FFAFEF7B0F880F0D2
:1026600000401B902046294604F0A6FFFEF7A7F87D
:1026700091491D90242248311EA8FDF7D1FD304616
:10268000FEF78AF80D46044604F096FFFEF797F829
:102690001E902046294606F00FFAFEF790F880F0CB
:1026A00000401F902046294606F006FAFEF787F8FC
:1026B00021902046294604F07FFFFEF780F8229003
:1026C000242127A8FDF7C5FD24216846FDF7C1FD9B
:1026D00000260DF59C7B0DF1540A0DF19C0906EBCB
:1026E000460000240BEB800809EB80075FF0000533
:1026F00005EB45010AEB810050F8241058F825003D
:10270000FDF711FE57F82410FDF7B5FD6D1C47F8D5
:102710002400032DECDB641C032CE7DB761C032E6A
:10272000DDDB0026CA46EB4606EB460000240DF131
:1027300078090AEB80080BEB8007002505EB4501C3
:1027400009EB810050F8241058F82500FDF7EBFD47
:1027500057F82410FDF78FFD6D1C47F82400032D5A
:10276000ECDB641C032CE8DB761C032EDCDB544D15
:102770005248CDE942050021524B44910B91CDE9DD
:102780000903514A4791CDE945020C904F48CDE9E4
:102790000D014F4CCDE948454A911191CDE90F43C8
:1027A0004D91CDE94B421294CDE91301659809AFE3
:1027B00000EB400407EB8405A8683D903D99029822
:1027C000FDF7B1FDD5F804B0064659460198FDF76E
:1027D000AAFD57F824A0054651460098FDF7A3FD31
:1027E0002946FDF748FD3146FDF745FD014666984F
:1027F00080F00040FDF791FD42AE56F82410FDF741
:102800003AFD31AF054647F824003D990598FDF79C
:102810008AFD804659460498FDF785FD814651465C
:102820000398FDF780FD4946FDF725FD4146FDF77C
:1028300022FD679981F0004201461046FDF76DFDCB
:1028400006EB8408D8F80410FDF715FD07EB8406A5
:10285000814670603D990898FDF765FD3D905946A9
:102860000798FDF760FD834651460698FDF75BFD2E
:102870005946FDF700FD3D99FDF7FDFC01466898BE
:1028800080F00040FDF749FDD8F80810FDF7F3FC93
:1028900080F0004147F82410B560649A9560C2E961
:1028A00000195BB0BDE8F00F5DF814FBCD0678565B
:1028B000FB21094000806640C89900080000F542ED
:1028C000CDCCBF4200005042CDCCBFC2000050C2B0
:1028D0000000F5C22DE9F05F7B487C4D4468AC6098
:1028E000207855287DD16078DFF8E4A1DFF8E4B1E5
:1028F0006FF00E06512804D052284BD05328F1D146
:102900009CE0A078E1786279084421791144084478
:10291000A1790844E1790844217A0844617A08449D
:10292000A630A17AC0B28142DCD1B4F90200FDF731
:102930000EFF37463246FDF7EEFE0422FDF7EBFEB2
:10294000DFF89481DFF8949142464B46FDF702FE92
:10295000FDF735FF624E3060B4F90400FDF7F7FE75
:102960003A46FDF7D8FE0422FDF7D5FE42464B4617
:10297000FDF7F0FDFDF723FF7060B4F90600FDF7E9
:10298000E6FE3A46FDF7C7FE0422FDF7C4FE4246C6
:102990004B463EE0A078E178627908442179114401
:1029A0000844A1790844E1790844217A0844617A0D
:1029B0000844A730A17AC0B2814212D1B4F9020012
:1029C000FDF7C5FE37463246FDF7A5FEDFF8148158
:1029D00000224346FDF7BEFDFDF7F1FE424E30609A
:1029E00000E06DE0B4F90400FDF7B1FE3A46FDF7F2
:1029F00092FE00224346FDF7ADFDFDF7E0FE70605C
:102A0000B4F90600FDF7A3FE3A46FDF784FE002266
:102A10004346FDF79FFDFDF7D2FEB060B4F9080014
:102A2000FDF795FE00225346FDF706FE5A462F4B52
:102A3000FDF7E9FCFDF7C3FE286041E0A078E178EE
:102A400062790844217911440844A1790844E17964
:102A50000844217A0844617A0844A830A17AC0B2B7
:102A600081422DD1B4F90200FDF771FE3246FDF727
:102A700052FEDFF87C8000224346FDF76BFDFDF738
:102A80009EFE1C4F3860B4F90400FDF760FE32462C
:102A9000FDF741FE00224346FDF75CFDFDF78FFE8A
:102AA0007860B4F90600FDF752FE3246FDF733FEBA
:102AB00000224346FDF74EFDFDF781FEB860ADE70D
:102AC0000120BDE8F09F0000FC000020380000203D
:102AD00000407540A4703D0A9A99999999992340AC
:102AE0001813002000409F4024130020D743424089
:102AF000008066403013002030B5234DA5B0D5E9E5
:102B00000001CDE91C0122A81E9000211CA804F0A0
:102B100031FF1E4C2060D5E90301CDE91F0123A838
:102B2000219000211FA804F025FF60601C2205F100
:102B300018016846FDF774FB0021684604F0EDFFBC
:102B4000A0601C2205F1340107A8FDF769FB0021F4
:102B500007A804F0E2FFE0601C2205F150010EA876
:102B6000FDF75EFB00210EA804F0D7FF20611C22B8
:102B700005F16C0115A8FDF753FB002115A804F021
:102B8000CCFF606125B030BD2899000848000020C6
:102B90002DE9F04385B00024284800940194029464
:102BA0000394816941F040018161816901F0400134
:102BB0000491816941F004018161816901F004019E
:102BC0000491816941F008018161816901F0080186
:102BD0000491816941F020018161816901F0200146
:102BE0000491816941F0100181618069DFF85080B2
:102BF00000F010000490002220214046FEF72FFB39
:102C0000DFF84090002220214846FEF728FB2025CF
:102C10000227012603970095CDE9016469464046E5
:102C2000FEF71AFA03970095CDE901646946484614
:102C3000FEF712FA05B0BDE8F08300000010024074
:102C400000180140000C014010B596B000240F940C
:102C500010941194129413941C2168461494FDF757
:102C6000F8FA202107A8FDF7F4FA31482F4901604E
:102C700040F2CF21C0E9011440F2CF71C0E9031442
:102C800044618461FEF797FE08B1FEF72DF94FF419
:102C900080500F900FA92648FEF7F1FE08B1FEF70D
:102CA00023F92348FFF7FFF808B1FEF71DF9139445
:102CB00013A91F481494FEF75DFE08B1FEF714F93E
:102CC0006020CDE900040294039404940594042246
:102CD000694617480694FFF77EF808B1FEF704F935
:102CE000082269461248FFF776F808B1FEF7FCF8AB
:102CF0000C2269460E48FFF76EF808B1FEF7F4F8AB
:102D00000794089409944FF400500A94CDE90B40BD
:102D100007A907480E94FEF703FE08B1FEF7E4F892
:102D20000348FEF7CBFF16B010BD0000002C014099
:102D3000B803002010B58EB00024079408940994BD
:102D40000A940B941C2168460C94FDF782FA2648DD
:102D50004FF08041016040F2CF21C0E9011440F200
:102D6000CF71C0E903148461FEF725FE08B1FEF7B8
:102D7000BBF84FF48050079007A91B48FEF77FFE71
:102D800008B1FEF7B1F81848FFF78DF808B1FEF763
:102D9000ABF80B940BA914480C94FEF7EBFD08B1AB
:102DA000FEF7A2F86020CDE90004029404226946EF
:102DB0000D480494FFF70FF808B1FEF795F80822C4
:102DC00069460948FFF707F808B1FEF78DF80C22AD
:102DD00069460548FEF7FFFF08B1FEF785F802488F
:102DE000FEF76CFF0EB010BDF803002010B58EB0DA
:102DF00000240794089409940A940B941C216846B3
:102E00000C94FDF726FA27482549016040F2CF21AE
:102E1000C0E9011440F2CF71C0E903148461FEF7E8
:102E2000CAFD08B1FEF760F84FF48050079007A97B
:102E30001C48FEF724FE08B1FEF756F81948FFF7C4
:102E400032F808B1FEF750F80B940BA915480C9412
:102E5000FEF790FD08B1FEF747F86020CDE90004C9
:102E60000294042269460F480494FEF7B4FF08B1A7
:102E7000FEF73AF8082269460A48FEF7ACFF08B1A7
:102E8000FEF732F80C2269460648FEF7A4FF08B1A7
:102E9000FEF72AF80348FEF711FF0EB010BD000040
:102EA000000400403804002010B58EB000240794C0
:102EB000089409940A940B941C2168460C94FDF71D
:102EC000C8F927482549016040F2CF21C0E9011423
:102ED00040F2CF71C0E903148461FEF76CFD08B1C4
:102EE000FEF702F84FF48050079007A91C48FEF740
:102EF000C6FD08B1FDF7F8FF1948FEF7D4FF08B189
:102F0000FDF7F2FF0B940BA915480C94FEF732FD68
:102F100008B1FDF7E9FF6020CDE900040294042226
:102F200069460F480494FEF756FF08B1FDF7DCFF31
:102F3000082269460A48FEF74EFF08B1FDF7D4FFA4
:102F40000C2269460648FEF746FF08B1FDF7CCFFA4
:102F50000348FEF7B3FE0EB010BD000000080040AD
:102F6000780400200C4810B50A4901604FF416514E
:102F70004160002181600C22C160C0E904128161BE
:102F8000C161FFF763F8002803D0BDE81040FDF7EA
:102F9000ABBF10BD004C0040B80400200C4810B579
:102FA0000A4901604FF416514160002181600C22F2
:102FB000C160C0E904128161C161FFF747F80028D0
:102FC00003D0BDE81040FDF78FBF10BD00380140B1
:102FD000F80400200C4810B50A4901604FF416416E
:102FE0004160002181600C22C160C0E9041281614E
:102FF000C161FFF72BF8002803D0BDE81040FDF7B2
:1030000073BF10BD00440040380500200C4810B5C7
:103010000A4901604FF4E1314160002181600C22D6
:10302000C160C0E904128161C161FFF70FF8002897
:1030300003D0BDE81040FDF757BF10BD0048004069
:1030400078050020164841680A78302A02D0312AD3
:1030500021D023E04A780121313A082A1ED2DFE844
:1030600002F00C040E081C0A1006022115E00321D0
:1030700013E0042111E005210FE006210DE00721F6
:103080000BE08278022A02D0042A02D006E0017006
:1030900004E0082101E000210170C17001207047A7
:1030A00000000020FEE770472DE9F04393B01C4676
:1030B000DDE91A6700920DF1040C15468CE8D0008A
:1030C000814688460B460246002110A8FFF750FAB9
:1030D00010AB0DF1100C93E8070000958CE8070089
:1030E0000DF1040C43468CE8D0004A46012110A89B
:1030F000FFF73EFA10AB0DF11C0C93E807000095AA
:103100008CE807000DF1040C43468CE8D0004A46D9
:10311000022110A8FFF72CFA10AB0DF1280C93E850
:10312000070000958CE807000DF1040C43468CE87D
:10313000D0004A46032110A8FFF71AFA10AB93E813
:1031400007000DAB83E80700042104A804F088FA07
:1031500000F004F813B00120BDE8F0832DE9FF5F13
:10316000D44CD5492068FDF7DEF8FDF715FBD34AAE
:10317000D34BFDF761FA0022D24BFDF75DFA002236
:10318000D14BFDF7E7F90022D04BFDF73CF9FDF7F5
:1031900016FB0546C8496068FDF7C5F8FDF7FCFA5F
:1031A000C64AC74BFDF748FA0022C64BFDF744FA62
:1031B0000022C54BFDF7CEF90022C44BFDF723F9E1
:1031C000FDF7FDFA0646A06880F00040FDF7E4FA3E
:1031D000BA4ABF4BFDF7B8F9FDF7F1FA02F0FCF976
:1031E000B549FDF7A0F8FDF7D7FAB44AB44BFDF79F
:1031F00023FA0022B34BFDF71FFA0022B24BFDF772
:10320000A9F9DFF8D08200224346FDF7FCF8FDF76C
:10321000D6FA8246A849E068FDF785F8FDF7BCFAC2
:10322000A64AA74BFDF708FA0022A64BFDF704FAC1
:103230000022A54BFDF78EF900224346FDF787F9E2
:10324000FDF7BDFA83469C492069FDF76CF8FDF750
:10325000A3FA9A4A9A4BFDF7EFF90022994BFDF732
:10326000EBF90022984BFDF775F99B4F00223B4686
:10327000FDF76DF9FDF7A3FA0090606980F000405A
:10328000FDF78AFA8D4A924BFDF75EF9FDF797FA42
:1032900002F0A2F98849FDF746F8FDF77DFA874A62
:1032A000874BFDF7C9F90022864BFDF7C5F90022CF
:1032B000854BFDF74FF900223B46FDF748F9FDF736
:1032C0007EFA019020467C498069FDF72CF8FDF7D5
:1032D00063FA7A4A7A4BFDF7AFF90022794BFDF792
:1032E000ABF90022784BFDF735F900224346FDF794
:1032F0002EF9FDF764FA029020466F49C069FDF788
:1033000012F8FDF749FA6D4A6D4BFDF795F9002269
:103310006C4BFDF791F900226B4BFDF71BF9002276
:103320003B46FDF770F8FDF74AFA03902046006A25
:1033300080F00040FDF730FA604A654BFDF704F974
:10334000FDF73DFA02F048F95B49FCF7ECFFFDF7A9
:1033500023FA5A4A5A4BFDF76FF90022594BFDF7F1
:103360006BF90022584BFDF7F5F800225B4BFDF797
:103370004AF8FDF724FA04464E484F49406AFCF7E4
:10338000D2FFFDF709FA4D4A4D4BFDF755F90022E2
:103390004C4BFDF751F900224B4BFDF7DBF80022B7
:1033A0004346FDF730F8FDF70AFA0746414842491F
:1033B000806AFCF7B8FFFDF7EFF9404A404BFDF794
:1033C0003BF900223F4BFDF737F900223E4BFDF75A
:1033D000C1F80022424BFDF7BAF8FDF7F0F981463B
:1033E0003448C06A80F00040FDF7D6F9334A384BC4
:1033F000FDF7AAF8FDF7E3F902F0EEF82E49FCF725
:1034000092FFFDF7C9F92D4A2D4BFDF715F9002262
:103410002C4BFDF711F900222B4BFDF79BF80022F6
:10342000304BFDF794F8FDF7CAF980462846FDF7C2
:103430009FF92D4D296888633046FDF799F9296871
:10344000C8635046FDF794F9296808645846FDF7AB
:103450008FF9264D296888630098FDF789F9296856
:10346000C8630198FDF784F9296808640298FDF79C
:103470007FF91F4D296888630398FDF779F929685A
:10348000C8632046FDF774F9296808643846FDF7DB
:103490006FF9184C216888634846FDF769F921687F
:1034A000C8634046FDF764F92168086404B0012050
:1034B000BDE8F09FE812002000003443CD067856A6
:1034C000FB21094000806640000069400020624006
:1034D000FB21F93F00C062400020634000E06040F3
:1034E0000060634000E06140F8030020B803002062
:1034F000780400203804002010B504211848FEF795
:10350000EFFC08211648FEF7EBFC0C211448FEF7EF
:10351000E7FC04211348FEF7E3FC08211148FEF7FD
:10352000DFFC0C210F48FEF7DBFC04210E48FEF700
:10353000D7FC08210C48FEF7D3FC0C210A48FEF703
:10354000CFFC04210948FEF7CBFC08210748FEF711
:10355000C7FCBDE810400C210448FEF7C1BC0000C8
:10356000B8030020F803002038040020780400206D
:10357000124A10B511689620886313689921D9639F
:10358000126811640E4A91231468A3631468E363FC
:10359000126810640B4A1368986314689B23E363F2
:1035A00012688F231364084A136898631068C16314
:1035B000116887200864012010BD0000B8030020B6
:1035C000F803002038040020780400202DE9FF4F84
:1035D00081B01C469046FDF78FFCFF49024608EA81
:1035E00001060020FD4BFE49DFF8F8A3DFF8F8B331
:1035F000082A1BD2DFE802F01A040C1B284463EAF5
:10360000FA492046FCF78FFEF949FCF7BEFE09E0B7
:1036100019462046FCF787FEF549FCF7B6FEF5494A
:10362000FCF77EFE0546012E0CD0F34CEAE219466B
:103630002046FCF778FEEE49FCF7A7FEEF49FCF7C1
:103640001AFEEFE7EE4CDDE20546012E20460CD0D7
:10365000FCF769FEE649FCF798FEFDF79DF84FF090
:103660003332E84BFCF773FF1AE0FCF75CFEE049ED
:10367000FCF78BFEFDF790F84FF03332E24BF1E7A9
:103680000546012E20460FD0FCF74DFED849FCF729
:103690007CFEFDF781F84FF03332DC4BFCF7B3FED4
:1036A000FDF78DF80446ADE2FCF73DFED049FCF78E
:1036B0006CFEFDF771F84FF03332D54BEEE7B8F101
:1036C000000F09D0B8F1010F7ED0B8F1020F7CD005
:1036D000B8F1030FAAD100E22046FDF75DF80546D8
:1036E0000C4600910022CB4BCB48BE4903F0A4FE10
:1036F000DFF8289307460E465846494605F02CFA4F
:10370000DFF81CA302460B4600205146FCF794FF4D
:1037100003F00CFB3A463346FCF716FF05F0CCF9F4
:1037200000225346FCF716FF23462A46FCF712FFF9
:103730000022BC4BFCF780FF074688460022B54BB1
:10374000B548A84903F078FE04460E465846494657
:1037500005F002FA02460B4600205146FCF76CFFCA
:1037600003F0E4FA22463346FCF7EEFE05F0A4F936
:103770000022AD4BFCF7EEFE4FF03332AB4BFCF7C3
:10378000E6FE43463A46FCF73EFEFDF718F80446CF
:103790002E4600229F4BA0489249DDF8008003F09E
:1037A0004BFE07460D465846494605F0D5F90246F8
:1037B0000B4600205146FCF73FFF03F0B7FA3A46AC
:1037C0002B46FCF7C1FE02E01AE0AFE021E203F075
:1037D000F3FE00225346FCF7BDFE32464346FCF79B
:1037E000B9FE00228F4BFCF727FF80460F460022D0
:1037F000884B89487B4903F01FFE0E460546A7E229
:103800002046FCF7C9FF05460C4600910022814B7B
:103810008148514603F010FE0E46074658467F4940
:1038200005F09AF9DFF8F89102460B460020494668
:10383000FCF702FF03F07AFA3A463346FCF784FEBF
:1038400005F03AF900224B46FCF784FE23462A464F
:10385000FCF780FE0022734BFCF7EEFE0446884620
:1038600000226C4B6C48514603F0E6FD0E460746BD
:1038700058466A4905F070F902460B460020494651
:10388000FCF7DAFE03F052FA3A463346FCF75CFEE8
:1038900005F012F90022644BFCF75CFE4FF0333266
:1038A000634BFCF754FE22464346FCF7ACFDFCF7A5
:1038B00086FF04462E460022564B57485146DDF8F7
:1038C000008003F0B9FD07460D465846534905F000
:1038D00043F902460B4600204946FCF7ADFE03F0D3
:1038E00025FA3A462B46FCF72FFE03F065FE002230
:1038F0004B46FCF72FFE43463246FCF72BFE0022D8
:10390000484BFCF799FE064688460022414B424848
:10391000514603F091FD07460D4658463F4905F0D4
:103920001BF902460B460020494656E12046FCF7AB
:1039300033FF05460C4600910022364B364851466F
:1039400003F07AFD06460F465846344905F004F95F
:10395000DFF8CC9002460B4600204946FCF76CFE8F
:1039600003F0E4F932463B46FCF7EEFD05F0A4F81F
:1039700000224B46FCF7EEFD23462A46FCF7EAFD03
:103980000022284BFCF758FE064688460022214BB1
:103990002148514603F050FD07460C4658461F4942
:1039A00005F0DAF802460B4600204946FCF744FED3
:1039B00003F0BCF93A462346FCF7C6FD05F07CF857
:1039C0000022194BFCF7C6FD4FF03332174BFCF7C2
:1039D0001AFD324643462DE00100008000004842B7
:1039E0000000A04199F96740713D0AD7000020C14D
:1039F00000000C420000C8419A992F420000C8C143
:103A00009A992FC233F34A4033F340C033F3404016
:103A100033F34AC000A06E409A999999C3A2F74027
:103A200000003440008041400000244033F3454012
:103A300033F345C0FCF788FDFCF7C1FE04462E4673
:103A40000022FE4BFE485146009F03F0F5FC054660
:103A500088465846FB4905F07FF802460B46002091
:103A60004946FCF7E9FD03F061F92A464346FCF7B5
:103A70006BFD03F0A1FD00224B46FCF76BFD3246C7
:103A80003B46FCF767FD0022EF4BFCF7D5FD0646F1
:103A90000D460022E94BEA48514603F0CDFC0746AB
:103AA00088465846E74905F057F802460B4600207D
:103AB0004946FCF7C1FD03F039F93A464346FCF7A5
:103AC00043FD03F079FD0022E04BFCF743FD324655
:103AD0004FEA0503FCF797FC91E02046FCF75CFEFB
:103AE00005460C4600910022D44BD548514603F0C0
:103AF000A3FCDFF8509306460F46D548494605F02B
:103B00002BF8DFF850B302460B4600205946FCF76D
:103B100093FD03F00BF932463B46FCF715FD04F02C
:103B2000CBFF00225B46FCF715FD23462A46FCF737
:103B300011FD0022C44BFCF77FFD0646884600229B
:103B4000BE4BBF48514603F077FC07460C46C048C1
:103B5000494605F001F802460B4600205946FCF79D
:103B60006BFD03F0E3F83A462346FCF7EDFC04F066
:103B7000A3FF0022B84BFCF7EDFC4FF03332B74BFC
:103B8000FCF741FC32464346FCF7DEFCFCF717FE2F
:103B900004462E460022A94BA9485146DDF8008074
:103BA00003F04AFC07460D46A948494604F0D4FFF5
:103BB00002460B4600205946FCF73EFD03F0B6F8DE
:103BC0003A462B46FCF7C0FC03F0F6FC00225B46AD
:103BD000FCF7C0FC434632466AE1FCF72DFD03F0DA
:103BE000A5F83A462B46FCF7AFFC03F0E5FC0022B3
:103BF000994BFCF7AFFC32464346FCF7A5FCFCF7BB
:103C0000DEFD05460198964980E8320005B0BDE822
:103C1000F08FB8F1000F7DD0B8F1010F7BD0B8F173
:103C2000020F79D0B8F1030FECD12046FCF7B4FDB8
:103C300005460C4600910022804B8148894903F0DB
:103C4000FBFBDFF8009207460E465846494604F053
:103C500083FFDFF800A202460B4600205146FCF726
:103C6000EBFC03F063F83A463346FCF76DFC04F0D6
:103C700023FF00225346FCF76DFC2A462346FCF73F
:103C800069FC0022704BFCF7D7FC80460F460022EF
:103C90006A4B6B48734903F0CFFB04460E46584607
:103CA000494604F059FF02460B4600205146FCF7F6
:103CB000C3FC03F03BF822463346FCF745FC04F016
:103CC000FBFE0022644BFCF745FC4FF03332634BA4
:103CD000FCF73DFC42463B46FCF795FBFCF76FFDCD
:103CE00004462F460022554B55485E49DDF80080BA
:103CF00003F0A2FB05460E465846494604F02CFF49
:103D000002460B4600205146FCF796FC03F00EF8E5
:103D10002A4602E035E0E4E088E13346FCF714FC93
:103D200003F04AFC00225346FCF714FC3A46434693
:103D3000FCF710FC0022444BFCF77EFC80460F464B
:103D400000223E4B3E48474903F076FB05460E46AF
:103D50005846494604F000FF02460B4600205146F3
:103D6000FCF76AFC02F0E2FF2A463346FCF7ECFB64
:103D700003F022FC0022354BFCF7ECFB42463B46AD
:103D8000A8E62046FCF708FD05460C4600910022F7
:103D90002A4B2B48514603F04FFBDFF8A89007460B
:103DA0000E462B48494604F0D7FEDFF8A8B002467D
:103DB0000B4600205946FCF73FFC02F0B7FF3A469D
:103DC0003346FCF7C1FB04F077FE00225B46FCF7AC
:103DD000C1FB23462A46FCF7BDFB00221A4BFCF729
:103DE0002BFC06460F460022144B1548514603F0A3
:103DF00023FB044688461648494604F0ADFE0246B9
:103E00000B4600205946FCF717FC02F08FFF2246B4
:103E10004346FCF799FB04F04FFE00220E4BFCF7E3
:103E200099FB4FF03332104BFCF7EDFA32463B462C
:103E3000FCF78AFBFCF7C3FC044617E000A06E40C9
:103E40009A999999C3A2F74000804140000024C08C
:103E5000713D0AD7000034400000244033F345C0D0
:103E60000000164399F9674033F345402E4600227F
:103E7000BA4BBB485146009F03F0DEFA80460D4620
:103E8000B848494604F068FE02460B4600205946F1
:103E9000FCF7D2FB02F04AFF42462B46FCF754FBEC
:103EA00003F08AFB00225B46FCF754FB32463B469C
:103EB000FCF750FB0022AC4BFCF7BEFB06468846E5
:103EC0000022A64BA648514603F0B6FA07460D4617
:103ED000A448494604F040FE02460B4600205946DD
:103EE0007BE62046FCF758FC05460C460091002274
:103EF0009A4B9B48514603F09FFADFF870920746B1
:103F00000E465846494604F027FE02460B4600205E
:103F10009749FCF791FB02F009FF3A463346FCF75C
:103F200013FB04F0C9FD0022914BFCF713FB234661
:103F30002A46FCF70FFB00228B4BFCF77DFB8046EB
:103F40000E460022854B8648514603F075FA074617
:103F50000C465846494604F0FFFD02460B46002039
:103F60008349FCF769FB02F0E1FE3A462346FCF781
:103F7000EBFA04F0A1FD00227E4BFCF7EBFA4FF0C8
:103F800033327D4BFCF73FFA42463346FCF7DCFA0E
:103F9000FCF715FC04462E460022704B7048514633
:103FA000DDF8008003F048FA07460D4658464946BA
:103FB00004F0D2FD02460B4600206D49FCF73CFBA5
:103FC00002F0B4FE3A462B46FCF7BEFA03F0F4FAD0
:103FD0000022674BFCF7BEFA43463246FCF7BAFABA
:103FE0000022614BFCF728FB06460F4600225B4B84
:103FF0005B48514603F020FA80460D465846494634
:1040000004F0AAFD02460B4600205949FCF714FBB8
:1040100002F08CFE42462B46FCF796FA03F0CCFAEF
:104020000022564BFCF796FA3246A8E62046FCF7EB
:10403000B3FB05460C4600910022484B48485049C6
:1040400003F0FAF9DFF8249107460E465846494630
:1040500004F082FDDFF818A102460B46002051460D
:10406000FCF7EAFA02F062FE3A463346FCF76CFAD5
:1040700004F022FD00225346FCF76CFA23462A4640
:10408000FCF768FA0022384BFCF7D6FA06460F46D2
:104090000022324B32483A4903F0CEF980460C46B2
:1040A0005846494604F058FD02460B46002051464A
:1040B000FCF7C2FA02F03AFE42462346FCF744FA05
:1040C00004F0FAFC00222B4BFCF744FA4FF0333299
:1040D0002C4BFCF73CFA32463B46FCF794F9FCF7D4
:1040E0006EFB04462F4600221C4B1D482449DDF878
:1040F000008003F0A1F905460E465846494604F0F3
:104100002BFD02460B4600205146FCF795FA02F0C3
:104110000DFE2A463346FCF717FA03F04DFA00224B
:104120005346FCF717FA3A464346FCF713FA0022C7
:104130000D4BFCF781FA064688460022074B0848DB
:104140000F4903F079F907460D465846494604F0F1
:1041500003FD02460B46002051463EE500A06E409E
:104160009A999999713D0AD700804140C3A2F740BE
:10417000000034400000244033F345C0000024C058
:1041800099F9674033F345402DE9FF4F83B09046DE
:10419000FCF7B2FE0746FF48DFF8F49308EA000692
:1041A000DFF8F4A3DFF8F4B30698FCF7F5FAFC4A5D
:1041B000FC4BFCF7CFF9FC4B0022FCF73DFACDE9B4
:1041C0000001082F2FD2DFE807F02E040C2F518EAC
:1041D000CDFDF6490698FCF7A6F84946FCF7D5F858
:1041E0001DE0EF4CEF4D009804F066FC22462B4694
:1041F000FCF722FA05460C4649460698FCF7C5F836
:10420000FCF7CAFA2A462346FCF79EF90022E84B3F
:10421000FCF7A0F90022E74BFCF7F5F821E0054692
:10422000012E21D0E44CFBE3DD4CDE4D009804F080
:1042300043FC22462B46FCF7FFF905460C4649464F
:104240000698FCF7A2F8FCF7A7FA2A462346FCF7E3
:104250007BF90022D94BFCF77DF90022D54BFCF706
:1042600073F9FCF7ACFADAE7D54CD9E30025012E57
:10427000CB4CCC4E00981CD004F01EFC224633469A
:10428000FCF7DAF906460C4649460698FCF77DF835
:10429000FCF782FA32462346FCF756F90022C94B56
:1042A000FCF758F9C84B4FF0333200BFFCF7ABF8BE
:1042B0003AE004F001FC22463346FCF7BDF906461D
:1042C0000C4649460698FCF760F8FCF765FA32465A
:1042D0002346FCF739F90022BA4BFCF73BF94FF0C3
:1042E0003332BA4BE2E70025012EAD4CAD4E0098BB
:1042F0001ED004F0E1FB22463346FCF79DF904464C
:104300000E4649460698FCF740F8FCF745FA224667
:104310003346FCF719F90022AA4BFCF71BF94FF0C2
:104320003332AB4BFCF713F9FCF749FA044677E359
:1043300004F0C2FB22463346FCF77EF906460C46E3
:1043400049460698FCF721F8FCF726FA3246234640
:10435000FCF7FAF800229B4BFCF7FCF84FF03332E5
:104360009C4BDFE7B8F1000F09D0B8F1010F7DD009
:10437000B8F1020F7BD0B8F1030FD8D173E20098E7
:1043800004F09AFB864A874BFCF756F904460E4622
:1043900049460698FBF7F9FFFCF7FEF90546334658
:1043A00022460291FCF7D0F8DFF82C9206468846A8
:1043B0000022794B7948494603F03EF807460C46FF
:1043C000864800E048E3DFF818B2594604F0C4FB21
:1043D000DFF8F0A102460B4600205146FCF72CF90D
:1043E00002F0A4FC3A462346FCF7AEF804F064FB66
:1043F00000225346FCF7AEF843463246FCF7AAF8D3
:10440000044688460022644B6448494603F014F889
:1044100007460E467148594604F09EFB02460B467D
:1044200000205146FCF708F902F080FC3A4633467A
:10443000FCF78AF804F040FB00226A4BFCF78AF88C
:104440004FF03332684BFBF7DEFF22464346FCF762
:104450007BF8FCF7B4F90446DDE9000104F02CFB1D
:104460004F4A504BFCF7E8F8024601E04CE038E1D7
:104470000B4628460299FCF767F806460F460022CD
:10448000454B4648494602F0D7FF05468846534803
:10449000594604F061FB02460B4600205146FCF7EA
:1044A000CBF802F043FC2A464346FCF74DF803F0F4
:1044B00083F800225346FCF74DF832463B46FCF7A2
:1044C00049F806460F460022334B3448494602F06D
:1044D000B3FF80460D464148594604F03DFB024675
:1044E0000B4600205146FCF7A7F802F01FFC42469D
:1044F0002B46FCF729F803F05FF80022394BFCF754
:1045000029F832463B46ABE1009804F0D5FA244A3C
:10451000244BFCF791F804460E4649460698FBF7F3
:1045200034FFFCF739F90546334622460291FCF781
:104530000BF8DFF8A49006460F460022164B5846AB
:10454000494602F079FFDFF894A0044688465046B9
:10455000234904F001FB02460B4600201949FCF7F1
:104560006BF802F0E3FB22464346FBF7EDFF04F055
:10457000A3FA0022134BFBF7EDFF32463B46FBF755
:10458000E9FF06460F460022034B584649462DE0F8
:1045900000000C420100008000A06E409A99999999
:1045A000CD067856FB21194000804140000020C113
:1045B00000004940000039C09A992F42000049C0CC
:1045C0009A992FC20000344033F3404033F34AC07D
:1045D00033F34A4033F340C099F96740713D0AD73D
:1045E000C3A2F7400000244033F3454002F024FF0B
:1045F000044688465046FB4904F0AEFA02460B4694
:104600000020F949FCF718F802F090FB22464346D7
:10461000FBF79AFF04F050FA0022F44BFBF79AFFE5
:104620004FF03332F24BFBF7EEFE32463B46FBF7E0
:104630008BFFFCF7C4F80446DDE9000104F03CFA06
:10464000EC4AED4BFBF7F8FF02460B462846029971
:10465000FBF77AFF80460E460022E84B5846494653
:1046600002F0EAFE07460D465046DE4904F074FAB1
:1046700002460B460020DC49FBF7DEFF02F056FB4A
:104680003A462B46FBF760FF02F096FF0022D64B1E
:10469000FBF760FF42463346FBF75CFF06460F46DA
:1046A0000022D64B5846494602F0C6FE05468846CB
:1046B0005046CC4904F050FA02460B460020CA4945
:1046C000FBF7BAFF02F032FB43462A46FBF73CFFFA
:1046D00002F072FF0022CA4BFBF73CFF32463B461A
:1046E00099E1009804F0E8F9C24AC34BFBF7A4FF34
:1046F00004460E4649460698FBF747FEFCF74CF881
:104700000546224633460291FBF71EFFDFF8F8927A
:1047100080460C460022B94BBA48494602F08CFE4E
:10472000DFF8C0A207460E46B848514604F014FA16
:10473000DFF8B4B202460B4600205946FBF77CFF77
:1047400002F0F4FA3A463346FBF7FEFE04F0B4F901
:1047500000225B46FBF7FEFE42462346FBF7FAFECD
:10476000044688460022A54BA648494602F064FE4E
:1047700007460E46A548514604F0EEF902460B46A0
:1047800000205946FBF758FF02F0D0FA3A4633466C
:10479000FBF7DAFE04F090F90022944BFBF7DAFE07
:1047A0004FF033329A4BFBF7D2FE43462246FBF7DB
:1047B0002AFEFCF704F80446DDE9000104F07CF968
:1047C0008C4A8D4BFBF738FF02460B462846029970
:1047D000FBF7BAFE80460D460022884B89484946C1
:1047E00002F02AFE0E4607468848514604F0B4F906
:1047F00002460B4600205946FBF71EFF02F096FAD0
:104800003A463346FBF7A0FE02F0D6FE00225B4696
:10481000FBF7A0FE42462B46FBF79CFE0646884669
:104820000022764B7748494602F006FE07460D46C1
:104830007648514604F090F902460B46002059464E
:10484000FBF7FAFE02F072FA3A462B46FBF77CFEC3
:1048500002F0B2FE0022654BFBF77CFE3246C9E156
:10486000FBF772FED9E0009804F026F9614A624B2A
:10487000FBF7E2FE04460E4649460698FBF785FD27
:10488000FBF78AFF0546224633460291FBF75CFEA2
:10489000DFF874B1064688460022584B59485946FD
:1048A00002F0CAFDDFF83C9107460C4657484946DE
:1048B00004F052F9DFF830A102460B4600205146C1
:1048C000FBF7BAFE02F032FA3A462346FBF73CFE0B
:1048D00004F0F2F800225346FBF73CFE3246434612
:1048E000FBF738FE064688460022444B45485946A9
:1048F00002F0A2FD07460C464448494604F02CF954
:1049000002460B4600205146FBF796FE02F00EFAD7
:104910003A462346FBF718FE04F0CEF80022334B4C
:10492000FBF718FE4FF03332314BFBF710FE3246E7
:104930004346FBF768FDFBF742FF0446DDE9000153
:1049400004F0BAF82B4A2C4BFBF776FE02460B46D6
:1049500028460299FBF7F8FD0F4606460022274B32
:104960002848594602F068FD0546884627484946CA
:1049700004F0F2F802460B4600205146FBF75CFEBD
:1049800002F0D4F92A464346FBF7DEFD02F014FE9E
:1049900000225346FBF7DEFD32463B46FBF7DAFDCD
:1049A000054688460022154B1648594602F044FD3C
:1049B00007460E461548494604F0CEF802460B4617
:1049C00000205146FBF738FE02F0B0F93A46334674
:1049D000FBF7BAFD02F0F0FD0022094BFBF7BAFD30
:1049E0002A464AE3C3A2F7400000344000002440B6
:1049F00033F345C0CD067856FB21194000A06E4028
:104A0000000024C09A99999999F96740713D0AD795
:104A100033F3454004E0FBF7F6FCFBF7D0FE054618
:104A2000DDE9000102F0C8FD4FF0FF32FBF773FE35
:104A30000022FE4BFBF78BFD0022FD4BFBF78AFDAE
:104A40000022FC4BFBF783FDFBF7B9FE039981E8DD
:104A5000310007B0BDE8F08FB8F1000F7ED0B8F19B
:104A6000010F7CD0B8F1020F7AD0B8F1030FD7D183
:104A7000009804F021F8F04AF04BFBF7DDFD044606
:104A80000E4649460698FBF780FCFBF785FE054677
:104A9000224633460291FBF757FDDFF8ACA3804670
:104AA0000F460022E64BE748514602F0C5FCDFF80E
:104AB000A0B304460E46E548594604F04DF8DFF829
:104AC000709302460B4600204946FBF7B5FD02F005
:104AD0002DF933462246FBF737FD03F0EDFF0022A8
:104AE0004B46FBF737FD42463B46FBF733FD80461E
:104AF0000E460022D24BD348514602F09DFC0C4694
:104B00000746D248594604F027F802460B460020D3
:104B10004946FBF791FD02F009F93A462346FBF7B7
:104B200013FD03F0C9FF0022CA4BFBF713FD4FF042
:104B30003332C94BFBF767FC42463346FBF704FDB3
:104B4000FBF73DFE0446DDE9000103F0B5FFBA4A7C
:104B5000BA4BFBF771FD0B46024602E04CE0F3E076
:104B6000CDE128460299FBF7EFFC06468846002275
:104B7000B34BB448514602F05FFC07460D46B348BC
:104B8000594603F0E9FF02460B4600204946FBF771
:104B900053FD02F0CBF83A462B46FBF7D5FC02F06A
:104BA0000BFD00224B46FBF7D5FC32464346FBF794
:104BB000D1FC054688460022A14BA248514602F08E
:104BC0003BFC07460E46A148594603F0C5FF024686
:104BD0000B4600204946FBF72FFD02F0A7F83A46A6
:104BE0003346FBF7B1FC02F0E7FC0022994BFBF7E0
:104BF000B1FC2A46434633E6009803F05DFF8E4A37
:104C00008E4BFBF719FD04460E4649460698FBF706
:104C1000BCFBFBF7C1FD0546334622460291FBF77C
:104C200093FC06460F46002253468648864902F00A
:104C300003FCDFF81CB2044688468448594603F05A
:104C40008BFFDFF8EC9102460B4600204946FBF74C
:104C5000F3FC02F06BF822464346FBF775FC03F0C9
:104C60002BFF00224B46FBF775FC32463B46FBF719
:104C700071FC07468846002253467248724902F08A
:104C8000DBFB04460E467148594603F065FF0246B9
:104C90000B4600204946FBF7CFFC02F047F82246BE
:104CA0003346FBF751FC03F007FF0022694BFBF78B
:104CB00051FC4FF03332694BFBF749FC3A4643460F
:104CC000FBF7A1FBFBF77BFD0446DDE9000103F0E8
:104CD000F3FE594A594BFBF7AFFC02460B462846F8
:104CE0000299FBF731FC0546884600225346554899
:104CF000554902F0A1FB07460E465448594603F0B9
:104D00002BFF02460B4600204946FBF795FC02F0BC
:104D10000DF83A463346FBF717FC02F04DFC002233
:104D20004B46FBF717FC2A464346FBF713FC0646A7
:104D30008846002253464348434902F07DFB07461C
:104D40000D464248594683E1009803F0B5FE3A4AC1
:104D50003A4BFBF771FC04460E4649460698FBF7B2
:104D600014FBFBF719FD0546224633460291FBF77B
:104D7000EBFB0E4680460022314B3248324902F0AE
:104D80005BFBDFF8C8B0DFF8C8A004460F46584602
:104D9000514603F0E1FEDFF8989002460B460020F2
:104DA0004946FBF749FC01F0C1FF3B462246FBF7B1
:104DB000CBFB03F081FE00224B46FBF7CBFB4246C8
:104DC0003346FBF7C7FB80460E4600221C4B1D48AE
:104DD0001D4902F031FB04460F465846514603F088
:104DE000BBFE02460B4600204946FBF725FC01F0BE
:104DF0009DFF3B462246FBF7A7FB03F05DFE00222A
:104E0000144BFBF7A7FB4FF03332134BFBF79FFB21
:104E100042463346FBF7F7FAFBF7D1FC0446DDE9DF
:104E2000000103F049FE044A044B19E00000E03F92
:104E30000000344000C06240CD067856FB21194086
:104E400000A06E409A99999999F96740713D0AD7E7
:104E5000C3A2F7400000244033F345C033F345407C
:104E6000FBF7EAFB02460B4628460299FBF76CFB70
:104E7000064688460022824B8248834902F0DCFACB
:104E80000D4607465846514603F066FE02460B465D
:104E900000204946FBF7D0FB01F048FF3A462B467D
:104EA000FBF752FB02F088FB00224B46FBF752FB5C
:104EB00032464346FBF74EFB06460D460022704B3A
:104EC0007048714902F0B8FA07468846584651467C
:104ED00003F042FE02460B4600204946FBF7ACFBBE
:104EE00001F024FF3A464346FBF72EFB02F064FB39
:104EF0000022664BFBF72EFB32462B46B0E40098AF
:104F000003F0DAFD624A634BFBF796FB04460E465C
:104F100049460698FBF739FAFBF73EFC0546224660
:104F200033460291FBF710FB044688460022544B9F
:104F30005448554902F080FADFF85CB1DFF85CA113
:104F40000E4607465846514603F006FEDFF85091DC
:104F500002460B4600204946FBF76EFB01F0E6FED9
:104F60003A463346FBF7F0FA03F0A6FD00224B4623
:104F7000FBF7F0FA22464346FBF7ECFA80460E4672
:104F800000223F4B3F48404902F056FA07460C4684
:104F90005846514603F0E0FD02460B4600204946C4
:104FA000FBF74AFB01F0C2FE3A462346FBF7CCFA78
:104FB00003F082FD0022354BFBF7CCFA4FF0333281
:104FC000384BFBF720FA42463346FBF7BDFAFBF7B6
:104FD000F6FB0446DDE9000103F06EFD2C4A2D4B83
:104FE000FBF72AFB02460B4628460299FBF7ACFA70
:104FF000054688460022224B2248234902F01CFA2B
:1050000007460E465846514603F0A6FD02460B469B
:1050100000204946FBF710FB01F088FE3A46334674
:10502000FBF792FA02F0C8FA00224B46FBF792FA1D
:105030002A464346FBF78EFA064688460022104B66
:105040001048114902F0F8F907460D4658465146F6
:1050500003F082FD02460B4600204946FBF7ECFABE
:1050600001F064FE3A462B46FBF76EFA02F0A4FA12
:1050700000220D4BFBF76EFA32464346CBE40000AC
:1050800000A06E409A99999999F9674000002440D0
:10509000CD067856FB211940713D0AD7C3A2F740CF
:1050A0000000344033F34540000024C010B55020C8
:1050B00080F31188BFF34F8FBFF36F8F04F0E8FACE
:1050C00018B104494FF080500860002080F3118827
:1050D00010BD000004ED00E030B58FB02821684617
:1050E000FBF7B7F814210AA8FBF7B3F8012108046D
:1050F000CDE900100024029402250491CDE9075067
:105100004FF4E01009906846FCF778FA0F20CDE9DB
:105110000A056802CDE90C4002210AA80E94FCF7AA
:1051200061F90FB030BD00000D48016841F0010188
:10513000016041680B4A1140416001680A4A114010
:105140000160016821F480210160416821F4FE01C1
:1051500041604FF41F0181600449C003086070473B
:10516000001002400000FFF8FFFFF6FE08ED00E02F
:105170000148FCF7F0BC0000B8050020F0B502685B
:105180001C4B1D4D1D4E1E4F1E4C4FF0804C984227
:1051900009D0A04207D0604505D0A84203D0B04254
:1051A00001D0B84204D122F0700E4A6842EA0E02E1
:1051B000984209D0A04207D0604505D0A84203D04C
:1051C000B04201D0B84203D122F44075CA682A43E4
:1051D0004D6922F080022A4302608A68C2620A682E
:1051E0008262984201D0A04201D109690163012184
:1051F0004161F0BD002C0140000400400008004067
:10520000000C00400034014010B501F01F030121E3
:10521000046A99408C430462016A9A401143016216
:1052200010BD10B5846842EA032224F47F440A4387
:105230002243826010BD826822F070020A4342F06D
:105240000701816070470000F0B5026A22F0010298
:105250000262036A42688469124E24F073050C6886
:105260002C4323F002058B682B430D4DA84201D03F
:10527000B04205D123F00807CB683B4323F0040379
:10528000A84201D0B04205D14D6922F440721543C5
:105290008A692A4342608461496841630362F0BDC0
:1052A000002C014000340140F0B5026A22F01002E7
:1052B0000262026A436884690D6824F4E64444EAA1
:1052C00005248D6822F0200242EA05120F4D104E8F
:1052D000A84201D0B04206D1CF6822F0800242EA53
:1052E000071222F04002A84201D0B04207D14D6916
:1052F00023F4406343EA85038D6943EA85034360F1
:105300008461496881630262F0BD0000002C0140A5
:1053100000340140F0B5026A22F480720262026A2F
:105320004368C46922F4007224F073050C68124EBD
:105330002C438D6842EA05220E4DA84201D0B042AE
:1053400006D1CF6822F4006242EA072222F480628A
:10535000A84201D0B04207D14D6923F4405343EA3B
:1053600005138D6943EA05134360C4614968C1634D
:105370000262F0BD002C01400034014030B5026AE9
:1053800022F480520262046A4268C3690D6823F401
:10539000E64343EA05238D6824F4005444EA0534C7
:1053A000084DA84202D0084DA84204D14D6922F40C
:1053B000804242EA85124260C36149680164046226
:1053C00030BD0000002C01400034014010B5036ADC
:1053D000046A24F001040462846924F0F00444EABD
:1053E000021423F00A020A438461026210BD10B560
:1053F000036A23F0100303628369046A23F4704391
:1054000043EA023224F0A00343EA011182610162FF
:1054100010BD08B5FEF7ACF804F034F9009000F0C8
:10542000A5FB0A21684603F0ABFCF8E71FB5012293
:1054300015491648FCF70EFF04F024F9144E154DDB
:10544000DFF85480154C0027039005226846316828
:1054500002F0BEFA9DE8070085E80700202803D186
:10546000FDF738FAFDF750F86068142804DD2021B4
:105470004046FBF7EDFE676060680521401C6060F8
:1054800003A803F07DFCE0E71C0100207805002064
:105490004C000020FC0000200018014038000020D3
:1054A00010B503F0CFFBFBF797FB00F0D3FAFEF744
:1054B00023F809A0FBF7C4FB12A0FBF7C1FBFBF725
:1054C00043FC4FF4FA60FBF7B5FD002003F09EFCAF
:1054D000BDE8104003F0D6BB2A2A205065726970DF
:1054E000686572616C20696E6974656420737563A8
:1054F0006365737366756C6C792E202A2A200D0AF9
:10550000000000002A2A204465627567206F7574C8
:105510007075742072656469726563746564207463
:105520006F20426C7565746F6F7468202855534105
:1055300052543229202A2A200D0A00001FB51F4C80
:1055400000250222A570E5701D491E48FCF782FE69
:1055500001221D491D48FCF77DFE04F093F81C4F05
:105560001C4E039005226846396802F031FADDE9E5
:105570000010029AB260C6E90010202915D16060BF
:10558000FDF760FD6068017831290ED14078302840
:1055900007D0312807D0322801D033280CD0A5708D
:1055A00003E0012000E00220A070FBF7DFFA0A21EF
:1055B00003A803F0E5FBD5E70420F5E70000002091
:1055C00008010020380500205A010020B8040020FE
:1055D00048000020D80000202DE9F0470746FBF7DF
:1055E000DBF8364D364C374EDFF8DC904FF0804A12
:1055F000B7F5000F2CDB4FF0FF32FBF78CF803F010
:105600005BFA00222B46FAF7A5FFFBF7D8F8804695
:105610002146FAF730FE3146FAF785FEFBF7BCF873
:1056200006460D4649464046FAF77DFEFBF7B4F8BC
:1056300007460C464046FBF7AFF80022534602F0FF
:1056400097FA3A462346FAF7DEFE32462B462CE01E
:1056500000221E4BFAF77EFF03F02EFA00222B46A3
:10566000FAF778FFFBF7ABF8804601462046FAF7D9
:1056700054FE3146FAF757FEFBF78EF805460E4604
:1056800049464046FAF74FFEFBF786F807460C46B8
:105690004046FBF781F80022534602F069FA3A4689
:1056A0002346FAF751FF2A463346FAF7C5FF01F0C1
:1056B0007BFCBDE8F047FBF782B8000000004940E2
:1056C00000008E420000404200000E430000E0BF98
:1056D00030B58FB0050006D03E4C3F49A0698842E6
:1056E00004DCE06907E0FDF743FF43E00020A06130
:1056F000E069401CE0613949A369084001283CD0B9
:10570000012229460CA8FEF73FFD0CAB93E80700E9
:1057100003AB83E80700022229460CA8A369FEF721
:1057200033FD0CAB93E8070006AB83E807000022CB
:1057300029460CA8A369FDF749FF0CAB93E80700C5
:105740008DE80700032229460CA8A369FDF73EFF58
:105750000CAB93E8070009AB83E807000421684617
:1057600001F07EFFFDF7FAFC4FF07E51A069FAF7D9
:1057700082FDA0610FB0012030BD002229460CA897
:10578000FEF702FD0CAB93E807008DE8070003224B
:1057900029460CA8A369FEF7F7FC0CAB93E80700B9
:1057A00009AB83E80700012229460CA8A369FDF78D
:1057B0000DFF0CAB93E8070003AB83E80700022260
:1057C00029460CA8A369FDF701FF0CAB93E807007D
:1057D00006ABC1E70800002000000C420100008079
:1057E0000148FCF7ABBB0000B804002010B5406ACC
:1057F0000021C185C184FCF7A0FB10BD0168CA6807
:1058000022F49072CA6001684A6922F001024A617A
:10581000202180F83A10704710B590F83A102229EC
:1058200001D0022010BD8168B1F5805F11D00169FF
:10583000002901681FD0496801F07F03816A4A1C72
:1058400082620B70C18D491E0904090CC18518D0F4
:105850002BE00269816A002A0268526805D0D2B240
:105860000A80816A491C8162ECE7C2F308020A805F
:10587000816A891CF7E74A68816A4B1C83620A7057
:10588000E0E70168CA6822F02002CA600168CA68BD
:1058900022F48072CA6001684A6922F001024A61FA
:1058A000202180F83A10FCF7FFFC002010BD00001A
:1058B0002DE9F041044600680169E26821F4405195
:1058C000114301612169A0680843616908432168A7
:1058D000CA6841F20C639A430243CA602068416976
:1058E000A26921F44071114341611E492068642579
:1058F0003226884202D1FBF73BFE01E0FBF728FE8F
:1059000000EBC00101EB001160686FF01807800028
:10591000B1FBF0F2B2FBF5F2B1FBF0F37A4303EB2B
:105920008202B1FBF0F306EB0212B2FBF5F2B3FB1D
:10593000F5F302F0F00202EB0312B1FBF0F3B1FB5E
:10594000F0F0B0FBF5F0784303EB800006EB0010BD
:10595000B0FBF5F0216800F00F0010448860BDE84E
:10596000F08100000038014090F83910212901D061
:10597000022070478168B1F5805F016A0BD04A1C34
:105980000262026809785160C18C491E0904090C41
:10599000C1840ED017E009880268C1F30801516084
:1059A00001690029016A02D0491C0162ECE7891CE7
:1059B000FBE70168CA6822F08002CA600068C1681B
:1059C00041F04001C160002070472DE9F041984648
:1059D00017460E460446069D1DE0681C1BD02DB1DF
:1059E000FBF742FCA0EB0800A84214D92068C1686C
:1059F00021F4D071C1602068416921F00101416149
:105A0000202084F8390084F83A00002084F8380017
:105A10000320BDE8F0812068006836EA000004D069
:105A20000020B842D9D00020F3E70120F9E70000B8
:105A30000148FCF783BA0000F80400200148FCF795
:105A40007DBA0000380500200148FCF777BA000055
:105A5000780500200448002101600171816003A1E4
:105A60000220FBF70DB9000048150020556C747238
:105A700061736F6E6963206D6F64756C6520696E0C
:105A8000697469616C697A65640D0A0010B508B1C2
:105A9000052901D2002010BD0278442A01D014A1AA
:105AA00022E0B0F8010040F69F7240BA411E1B4C44
:105AB000914215D2FAF746FE1949FAF766FC2060C2
:105AC00001202071FBF7D0FBA0602068FAF764FE8C
:105AD00002460B4613A10220FBF7D2F8012010BDAD
